{
  "contractName": "Lottery",
  "abi": [
    {
      "inputs": [],
      "stateMutability": "nonpayable",
      "type": "constructor"
    },
    {
      "anonymous": false,
      "inputs": [
        {
          "indexed": false,
          "internalType": "uint256",
          "name": "index",
          "type": "uint256"
        },
        {
          "indexed": false,
          "internalType": "uint256",
          "name": "prize",
          "type": "uint256"
        },
        {
          "indexed": false,
          "internalType": "address",
          "name": "winner",
          "type": "address"
        }
      ],
      "name": "WinnerPicked",
      "type": "event"
    },
    {
      "inputs": [],
      "name": "owner",
      "outputs": [
        {
          "internalType": "address",
          "name": "",
          "type": "address"
        }
      ],
      "stateMutability": "view",
      "type": "function"
    },
    {
      "inputs": [
        {
          "internalType": "uint256",
          "name": "",
          "type": "uint256"
        }
      ],
      "name": "participants",
      "outputs": [
        {
          "internalType": "string",
          "name": "nickname",
          "type": "string"
        },
        {
          "internalType": "address payable",
          "name": "wallet",
          "type": "address"
        },
        {
          "internalType": "uint256",
          "name": "amount",
          "type": "uint256"
        }
      ],
      "stateMutability": "view",
      "type": "function"
    },
    {
      "inputs": [],
      "name": "pickWinner",
      "outputs": [],
      "stateMutability": "nonpayable",
      "type": "function"
    },
    {
      "inputs": [],
      "name": "getParticipants",
      "outputs": [
        {
          "components": [
            {
              "internalType": "string",
              "name": "nickname",
              "type": "string"
            },
            {
              "internalType": "address payable",
              "name": "wallet",
              "type": "address"
            },
            {
              "internalType": "uint256",
              "name": "amount",
              "type": "uint256"
            }
          ],
          "internalType": "struct Lottery.Participant[]",
          "name": "",
          "type": "tuple[]"
        }
      ],
      "stateMutability": "view",
      "type": "function"
    },
    {
      "inputs": [
        {
          "internalType": "string",
          "name": "nickname",
          "type": "string"
        }
      ],
      "name": "enter",
      "outputs": [],
      "stateMutability": "payable",
      "type": "function"
    }
  ],
  "bytecode": "0x608060405234801561000f575f80fd5b50335f806101000a81548173ffffffffffffffffffffffffffffffffffffffff021916908373ffffffffffffffffffffffffffffffffffffffff1602179055506113688061005c5f395ff3fe608060405260043610610049575f3560e01c806335c1d3491461004d5780635aa68ac01461008b5780635d495aea146100b55780638da5cb5b146100cb5780639d4ff8ad146100f5575b5f80fd5b348015610058575f80fd5b50610073600480360381019061006e9190610972565b610111565b60405161008293929190610a75565b60405180910390f35b348015610096575f80fd5b5061009f6101eb565b6040516100ac9190610c1f565b60405180910390f35b3480156100c0575f80fd5b506100c9610335565b005b3480156100d6575f80fd5b506100df6104b8565b6040516100ec9190610c5f565b60405180910390f35b61010f600480360381019061010a9190610da4565b6104db565b005b60018181548110610120575f80fd5b905f5260205f2090600302015f91509050805f01805461013f90610e18565b80601f016020809104026020016040519081016040528092919081815260200182805461016b90610e18565b80156101b65780601f1061018d576101008083540402835291602001916101b6565b820191905f5260205f20905b81548152906001019060200180831161019957829003601f168201915b505050505090806001015f9054906101000a900473ffffffffffffffffffffffffffffffffffffffff16908060020154905083565b60606001805480602002602001604051908101604052809291908181526020015f905b8282101561032c578382905f5260205f2090600302016040518060600160405290815f8201805461023e90610e18565b80601f016020809104026020016040519081016040528092919081815260200182805461026a90610e18565b80156102b55780601f1061028c576101008083540402835291602001916102b5565b820191905f5260205f20905b81548152906001019060200180831161029857829003601f168201915b50505050508152602001600182015f9054906101000a900473ffffffffffffffffffffffffffffffffffffffff1673ffffffffffffffffffffffffffffffffffffffff1673ffffffffffffffffffffffffffffffffffffffff1681526020016002820154815250508152602001906001019061020e565b50505050905090565b5f8054906101000a900473ffffffffffffffffffffffffffffffffffffffff1673ffffffffffffffffffffffffffffffffffffffff163373ffffffffffffffffffffffffffffffffffffffff16146103c2576040517f08c379a00000000000000000000000000000000000000000000000000000000081526004016103b990610eb8565b60405180910390fd5b5f6001805490506103d1610619565b6103db9190610f03565b90505f4790505f600183815481106103f6576103f5610f33565b5b905f5260205f2090600302016001015f9054906101000a900473ffffffffffffffffffffffffffffffffffffffff1690508073ffffffffffffffffffffffffffffffffffffffff166108fc8390811502906040515f60405180830381858888f1935050505015801561046a573d5f803e3d5ffd5b5060015f6104789190610863565b7f5edee9983c71e662e459fada2d6d9b4d9c61a0b4aab67068913d8ae44dac201e8383836040516104ab93929190610fbb565b60405180910390a1505050565b5f8054906101000a900473ffffffffffffffffffffffffffffffffffffffff1681565b662386f26fc100005f6104ed82610648565b6040516020016104fd9190611050565b6040516020818303038152906040529050813410158190610554576040517f08c379a000000000000000000000000000000000000000000000000000000000815260040161054b9190611075565b60405180910390fd5b50600160405180606001604052808581526020013373ffffffffffffffffffffffffffffffffffffffff16815260200134815250908060018154018082558091505060019003905f5260205f2090600302015f909190919091505f820151815f0190816105c19190611229565b506020820151816001015f6101000a81548173ffffffffffffffffffffffffffffffffffffffff021916908373ffffffffffffffffffffffffffffffffffffffff160217905550604082015181600201555050505050565b5f4260405160200161062b9190611318565b604051602081830303815290604052805190602001205f1c905090565b60605f600161065684610712565b0190505f8167ffffffffffffffff81111561067457610673610c80565b5b6040519080825280601f01601f1916602001820160405280156106a65781602001600182028036833780820191505090505b5090505f82602001820190505b600115610707578080600190039150507f3031323334353637383961626364656600000000000000000000000000000000600a86061a8153600a85816106fc576106fb610ed6565b5b0494505f85036106b3575b819350505050919050565b5f805f90507a184f03e93ff9f4daa797ed6e38ed64bf6a1f010000000000000000831061076e577a184f03e93ff9f4daa797ed6e38ed64bf6a1f010000000000000000838161076457610763610ed6565b5b0492506040810190505b6d04ee2d6d415b85acef810000000083106107ab576d04ee2d6d415b85acef810000000083816107a1576107a0610ed6565b5b0492506020810190505b662386f26fc1000083106107da57662386f26fc1000083816107d0576107cf610ed6565b5b0492506010810190505b6305f5e1008310610803576305f5e10083816107f9576107f8610ed6565b5b0492506008810190505b612710831061082857612710838161081e5761081d610ed6565b5b0492506004810190505b6064831061084b576064838161084157610840610ed6565b5b0492506002810190505b600a831061085a576001810190505b80915050919050565b5080545f8255600302905f5260205f20908101906108819190610884565b50565b5b808211156108d2575f8082015f61089c91906108d6565b600182015f6101000a81549073ffffffffffffffffffffffffffffffffffffffff0219169055600282015f905550600301610885565b5090565b5080546108e290610e18565b5f825580601f106108f35750610910565b601f0160209004905f5260205f209081019061090f9190610913565b5b50565b5b8082111561092a575f815f905550600101610914565b5090565b5f604051905090565b5f80fd5b5f80fd5b5f819050919050565b6109518161093f565b811461095b575f80fd5b50565b5f8135905061096c81610948565b92915050565b5f6020828403121561098757610986610937565b5b5f6109948482850161095e565b91505092915050565b5f81519050919050565b5f82825260208201905092915050565b5f5b838110156109d45780820151818401526020810190506109b9565b5f8484015250505050565b5f601f19601f8301169050919050565b5f6109f98261099d565b610a0381856109a7565b9350610a138185602086016109b7565b610a1c816109df565b840191505092915050565b5f73ffffffffffffffffffffffffffffffffffffffff82169050919050565b5f610a5082610a27565b9050919050565b610a6081610a46565b82525050565b610a6f8161093f565b82525050565b5f6060820190508181035f830152610a8d81866109ef565b9050610a9c6020830185610a57565b610aa96040830184610a66565b949350505050565b5f81519050919050565b5f82825260208201905092915050565b5f819050602082019050919050565b5f82825260208201905092915050565b5f610af48261099d565b610afe8185610ada565b9350610b0e8185602086016109b7565b610b17816109df565b840191505092915050565b610b2b81610a46565b82525050565b610b3a8161093f565b82525050565b5f606083015f8301518482035f860152610b5a8282610aea565b9150506020830151610b6f6020860182610b22565b506040830151610b826040860182610b31565b508091505092915050565b5f610b988383610b40565b905092915050565b5f602082019050919050565b5f610bb682610ab1565b610bc08185610abb565b935083602082028501610bd285610acb565b805f5b85811015610c0d5784840389528151610bee8582610b8d565b9450610bf983610ba0565b925060208a01995050600181019050610bd5565b50829750879550505050505092915050565b5f6020820190508181035f830152610c378184610bac565b905092915050565b5f610c4982610a27565b9050919050565b610c5981610c3f565b82525050565b5f602082019050610c725f830184610c50565b92915050565b5f80fd5b5f80fd5b7f4e487b71000000000000000000000000000000000000000000000000000000005f52604160045260245ffd5b610cb6826109df565b810181811067ffffffffffffffff82111715610cd557610cd4610c80565b5b80604052505050565b5f610ce761092e565b9050610cf38282610cad565b919050565b5f67ffffffffffffffff821115610d1257610d11610c80565b5b610d1b826109df565b9050602081019050919050565b828183375f83830152505050565b5f610d48610d4384610cf8565b610cde565b905082815260208101848484011115610d6457610d63610c7c565b5b610d6f848285610d28565b509392505050565b5f82601f830112610d8b57610d8a610c78565b5b8135610d9b848260208601610d36565b91505092915050565b5f60208284031215610db957610db8610937565b5b5f82013567ffffffffffffffff811115610dd657610dd561093b565b5b610de284828501610d77565b91505092915050565b7f4e487b71000000000000000000000000000000000000000000000000000000005f52602260045260245ffd5b5f6002820490506001821680610e2f57607f821691505b602082108103610e4257610e41610deb565b5b50919050565b7f4f6e6c7920746865206f776e6572206f66207468697320636f6e7472616374205f8201527f63616e2063616c6c207468652066756e6374696f6e0000000000000000000000602082015250565b5f610ea26035836109a7565b9150610ead82610e48565b604082019050919050565b5f6020820190508181035f830152610ecf81610e96565b9050919050565b7f4e487b71000000000000000000000000000000000000000000000000000000005f52601260045260245ffd5b5f610f0d8261093f565b9150610f188361093f565b925082610f2857610f27610ed6565b5b828206905092915050565b7f4e487b71000000000000000000000000000000000000000000000000000000005f52603260045260245ffd5b5f819050919050565b5f610f83610f7e610f7984610a27565b610f60565b610a27565b9050919050565b5f610f9482610f69565b9050919050565b5f610fa582610f8a565b9050919050565b610fb581610f9b565b82525050565b5f606082019050610fce5f830186610a66565b610fdb6020830185610a66565b610fe86040830184610fac565b949350505050565b7f546865206d696e696d756d2076616c7565207265717569726564206973200000815250565b5f81905092915050565b5f61102a8261099d565b6110348185611016565b93506110448185602086016109b7565b80840191505092915050565b5f61105a82610ff0565b601e8201915061106a8284611020565b915081905092915050565b5f6020820190508181035f83015261108d81846109ef565b905092915050565b5f819050815f5260205f209050919050565b5f6020601f8301049050919050565b5f82821b905092915050565b5f600883026110f17fffffffffffffffffffffffffffffffffffffffffffffffffffffffffffffffff826110b6565b6110fb86836110b6565b95508019841693508086168417925050509392505050565b5f61112d6111286111238461093f565b610f60565b61093f565b9050919050565b5f819050919050565b61114683611113565b61115a61115282611134565b8484546110c2565b825550505050565b5f90565b61116e611162565b61117981848461113d565b505050565b5b8181101561119c576111915f82611166565b60018101905061117f565b5050565b601f8211156111e1576111b281611095565b6111bb846110a7565b810160208510156111ca578190505b6111de6111d6856110a7565b83018261117e565b50505b505050565b5f82821c905092915050565b5f6112015f19846008026111e6565b1980831691505092915050565b5f61121983836111f2565b9150826002028217905092915050565b6112328261099d565b67ffffffffffffffff81111561124b5761124a610c80565b5b6112558254610e18565b6112608282856111a0565b5f60209050601f831160018114611291575f841561127f578287015190505b611289858261120e565b8655506112f0565b601f19841661129f86611095565b5f5b828110156112c6578489015182556001820191506020850194506020810190506112a1565b868310156112e357848901516112df601f8916826111f2565b8355505b6001600288020188555050505b505050505050565b5f819050919050565b61131261130d8261093f565b6112f8565b82525050565b5f6113238284611301565b6020820191508190509291505056fea264697066735822122075f2dc677b29cdd704e05ad4689e4549496e0b281d225f05da55c17b523aba5a64736f6c63430008150033",
  "immutableReferences": {},
  "source": "// SPDX-License-Identifier: MIT\npragma solidity ^0.8.20;\n\nimport \"@openzeppelin/contracts/utils/Strings.sol\";\n\ncontract Lottery {\n\n    struct Participant {\n        string nickname;\n        address payable wallet;\n        uint amount;\n    }\n\n    // Stores the owner of the contract\n    address public owner;\n    Participant[] public participants;\n\n    // We use it to emit some details about the pickWinner transaction\n    event WinnerPicked(\n        uint index,\n        uint prize,\n        address winner\n    );\n\n    /**\n     * @dev Stores the address of the person deploying the contract\n     */\n    constructor() {\n        owner = msg.sender;\n    }\n\n    /**\n     * @dev Makes sure the owner is the only one who can call a function\n     */\n    modifier restricted() {\n        require(msg.sender == owner, \"Only the owner of this contract can call the function\");\n        _;\n    }\n\n    /**\n     * @dev Enforces a minimun amount of ether to be sent to a function\n     * @param value The minimum amount to send\n     */\n    modifier minimum(uint value) {\n        string memory requiredMsg = string.concat(\"The minimum value required is \", Strings.toString(value));\n        require(msg.value >= value, requiredMsg);\n        _;\n    }\n\n    function pickWinner() public restricted {\n        // Compute the (pseudo) random index of the winner\n        uint index = random() % participants.length;\n\n        uint prize = address(this).balance;\n        address payable winnerWallet = participants[index].wallet;\n\n        // Transfer the total amount to the winner\n        winnerWallet.transfer(prize);\n\n        // Empty the list of players\n        delete participants;\n\n        // Emit event with details of the result\n        emit WinnerPicked(\n            index,\n            prize,\n            winnerWallet\n        );\n    }\n\n    /**\n     * @dev Generates a pseudo random number\n     * https://medium.com/0xcode/hashing-functions-in-solidity-using-keccak256-70779ea55bb0\n     * https://docs.soliditylang.org/en/v0.8.17/abi-spec.html\n     * @return index of the player within our list\n     */\n    function random() private view returns (uint) {\n        return uint(keccak256(abi.encodePacked(block.timestamp)));\n    }\n\n    /**\n     * @dev Gets the list of participants currently in the game\n     * @return participants\n     */\n    function getParticipants() public view returns (Participant[] memory) {\n        return participants;\n    }\n\n    /**\n     * @dev Will be called by the player who enters de game sending ether\n     * and makes sure he/she is sending a minimum of 0.01 ether\n     */\n    function enter(string memory nickname) public payable minimum(.01 ether) {\n        participants.push(Participant(nickname, payable(msg.sender), msg.value));\n    }\n}",
  "sourcePath": "/Users/kup/Projects/personal/smart-contracts-example/contracts/Lottery.sol",
  "compiler": {
    "name": "solc",
    "version": "0.8.21+commit.d9974bed.Emscripten.clang"
  },
  "schemaVersion": "3.4.16",
  "updatedAt": "2024-06-18T09:51:43.052Z",
  "devdoc": {
    "kind": "dev",
    "methods": {
      "constructor": {
        "details": "Stores the address of the person deploying the contract"
      },
      "enter(string)": {
        "details": "Will be called by the player who enters de game sending ether and makes sure he/she is sending a minimum of 0.01 ether"
      },
      "getParticipants()": {
        "details": "Gets the list of participants currently in the game",
        "returns": {
          "_0": "participants"
        }
      }
    },
    "version": 1
  },
  "userdoc": {
    "kind": "user",
    "methods": {},
    "version": 1
  }
}