{
  "contractName": "Lottery",
  "abi": [
    {
      "inputs": [],
      "stateMutability": "nonpayable",
      "type": "constructor"
    },
    {
      "anonymous": false,
      "inputs": [
        {
          "indexed": false,
          "internalType": "uint256",
          "name": "index",
          "type": "uint256"
        },
        {
          "indexed": false,
          "internalType": "uint256",
          "name": "prize",
          "type": "uint256"
        },
        {
          "indexed": false,
          "internalType": "address",
          "name": "winner",
          "type": "address"
        },
        {
          "indexed": false,
          "internalType": "string",
          "name": "nickname",
          "type": "string"
        }
      ],
      "name": "WinnerPicked",
      "type": "event"
    },
    {
      "inputs": [],
      "name": "owner",
      "outputs": [
        {
          "internalType": "address",
          "name": "",
          "type": "address"
        }
      ],
      "stateMutability": "view",
      "type": "function"
    },
    {
      "inputs": [
        {
          "internalType": "uint256",
          "name": "",
          "type": "uint256"
        }
      ],
      "name": "participants",
      "outputs": [
        {
          "internalType": "string",
          "name": "nickname",
          "type": "string"
        },
        {
          "internalType": "address payable",
          "name": "wallet",
          "type": "address"
        },
        {
          "internalType": "uint256",
          "name": "amount",
          "type": "uint256"
        }
      ],
      "stateMutability": "view",
      "type": "function"
    },
    {
      "inputs": [],
      "name": "pickWinner",
      "outputs": [],
      "stateMutability": "nonpayable",
      "type": "function"
    },
    {
      "inputs": [],
      "name": "getParticipants",
      "outputs": [
        {
          "components": [
            {
              "internalType": "string",
              "name": "nickname",
              "type": "string"
            },
            {
              "internalType": "address payable",
              "name": "wallet",
              "type": "address"
            },
            {
              "internalType": "uint256",
              "name": "amount",
              "type": "uint256"
            }
          ],
          "internalType": "struct Lottery.Participant[]",
          "name": "",
          "type": "tuple[]"
        }
      ],
      "stateMutability": "view",
      "type": "function"
    },
    {
      "inputs": [
        {
          "internalType": "string",
          "name": "nickname",
          "type": "string"
        }
      ],
      "name": "enter",
      "outputs": [],
      "stateMutability": "payable",
      "type": "function"
    }
  ],
  "bytecode": "0x608060405234801561000f575f80fd5b50335f806101000a81548173ffffffffffffffffffffffffffffffffffffffff021916908373ffffffffffffffffffffffffffffffffffffffff16021790555061142c8061005c5f395ff3fe608060405260043610610049575f3560e01c806335c1d3491461004d5780635aa68ac01461008b5780635d495aea146100b55780638da5cb5b146100cb5780639d4ff8ad146100f5575b5f80fd5b348015610058575f80fd5b50610073600480360381019061006e9190610a21565b610111565b60405161008293929190610b24565b60405180910390f35b348015610096575f80fd5b5061009f6101eb565b6040516100ac9190610cce565b60405180910390f35b3480156100c0575f80fd5b506100c9610335565b005b3480156100d6575f80fd5b506100df610567565b6040516100ec9190610d0e565b60405180910390f35b61010f600480360381019061010a9190610e53565b61058a565b005b60018181548110610120575f80fd5b905f5260205f2090600302015f91509050805f01805461013f90610ec7565b80601f016020809104026020016040519081016040528092919081815260200182805461016b90610ec7565b80156101b65780601f1061018d576101008083540402835291602001916101b6565b820191905f5260205f20905b81548152906001019060200180831161019957829003601f168201915b505050505090806001015f9054906101000a900473ffffffffffffffffffffffffffffffffffffffff16908060020154905083565b60606001805480602002602001604051908101604052809291908181526020015f905b8282101561032c578382905f5260205f2090600302016040518060600160405290815f8201805461023e90610ec7565b80601f016020809104026020016040519081016040528092919081815260200182805461026a90610ec7565b80156102b55780601f1061028c576101008083540402835291602001916102b5565b820191905f5260205f20905b81548152906001019060200180831161029857829003601f168201915b50505050508152602001600182015f9054906101000a900473ffffffffffffffffffffffffffffffffffffffff1673ffffffffffffffffffffffffffffffffffffffff1673ffffffffffffffffffffffffffffffffffffffff1681526020016002820154815250508152602001906001019061020e565b50505050905090565b5f8054906101000a900473ffffffffffffffffffffffffffffffffffffffff1673ffffffffffffffffffffffffffffffffffffffff163373ffffffffffffffffffffffffffffffffffffffff16146103c2576040517f08c379a00000000000000000000000000000000000000000000000000000000081526004016103b990610f67565b60405180910390fd5b5f6001805490506103d16106c8565b6103db9190610fb2565b90505f4790505f600183815481106103f6576103f5610fe2565b5b905f5260205f2090600302016001015f9054906101000a900473ffffffffffffffffffffffffffffffffffffffff1690505f6001848154811061043c5761043b610fe2565b5b905f5260205f2090600302015f01805461045590610ec7565b80601f016020809104026020016040519081016040528092919081815260200182805461048190610ec7565b80156104cc5780601f106104a3576101008083540402835291602001916104cc565b820191905f5260205f20905b8154815290600101906020018083116104af57829003601f168201915b505050505090508173ffffffffffffffffffffffffffffffffffffffff166108fc8490811502906040515f60405180830381858888f19350505050158015610516573d5f803e3d5ffd5b5060015f6105249190610912565b7f55e9eefe3f14fa5fdff30781fa5d4bb14f218080897dc896199559a93287347384848484604051610559949392919061106a565b60405180910390a150505050565b5f8054906101000a900473ffffffffffffffffffffffffffffffffffffffff1681565b662386f26fc100005f61059c826106f7565b6040516020016105ac9190611114565b6040516020818303038152906040529050813410158190610603576040517f08c379a00000000000000000000000000000000000000000000000000000000081526004016105fa9190611139565b60405180910390fd5b50600160405180606001604052808581526020013373ffffffffffffffffffffffffffffffffffffffff16815260200134815250908060018154018082558091505060019003905f5260205f2090600302015f909190919091505f820151815f01908161067091906112ed565b506020820151816001015f6101000a81548173ffffffffffffffffffffffffffffffffffffffff021916908373ffffffffffffffffffffffffffffffffffffffff160217905550604082015181600201555050505050565b5f426040516020016106da91906113dc565b604051602081830303815290604052805190602001205f1c905090565b60605f6001610705846107c1565b0190505f8167ffffffffffffffff81111561072357610722610d2f565b5b6040519080825280601f01601f1916602001820160405280156107555781602001600182028036833780820191505090505b5090505f82602001820190505b6001156107b6578080600190039150507f3031323334353637383961626364656600000000000000000000000000000000600a86061a8153600a85816107ab576107aa610f85565b5b0494505f8503610762575b819350505050919050565b5f805f90507a184f03e93ff9f4daa797ed6e38ed64bf6a1f010000000000000000831061081d577a184f03e93ff9f4daa797ed6e38ed64bf6a1f010000000000000000838161081357610812610f85565b5b0492506040810190505b6d04ee2d6d415b85acef8100000000831061085a576d04ee2d6d415b85acef810000000083816108505761084f610f85565b5b0492506020810190505b662386f26fc10000831061088957662386f26fc10000838161087f5761087e610f85565b5b0492506010810190505b6305f5e10083106108b2576305f5e10083816108a8576108a7610f85565b5b0492506008810190505b61271083106108d75761271083816108cd576108cc610f85565b5b0492506004810190505b606483106108fa57606483816108f0576108ef610f85565b5b0492506002810190505b600a8310610909576001810190505b80915050919050565b5080545f8255600302905f5260205f20908101906109309190610933565b50565b5b80821115610981575f8082015f61094b9190610985565b600182015f6101000a81549073ffffffffffffffffffffffffffffffffffffffff0219169055600282015f905550600301610934565b5090565b50805461099190610ec7565b5f825580601f106109a257506109bf565b601f0160209004905f5260205f20908101906109be91906109c2565b5b50565b5b808211156109d9575f815f9055506001016109c3565b5090565b5f604051905090565b5f80fd5b5f80fd5b5f819050919050565b610a00816109ee565b8114610a0a575f80fd5b50565b5f81359050610a1b816109f7565b92915050565b5f60208284031215610a3657610a356109e6565b5b5f610a4384828501610a0d565b91505092915050565b5f81519050919050565b5f82825260208201905092915050565b5f5b83811015610a83578082015181840152602081019050610a68565b5f8484015250505050565b5f601f19601f8301169050919050565b5f610aa882610a4c565b610ab28185610a56565b9350610ac2818560208601610a66565b610acb81610a8e565b840191505092915050565b5f73ffffffffffffffffffffffffffffffffffffffff82169050919050565b5f610aff82610ad6565b9050919050565b610b0f81610af5565b82525050565b610b1e816109ee565b82525050565b5f6060820190508181035f830152610b3c8186610a9e565b9050610b4b6020830185610b06565b610b586040830184610b15565b949350505050565b5f81519050919050565b5f82825260208201905092915050565b5f819050602082019050919050565b5f82825260208201905092915050565b5f610ba382610a4c565b610bad8185610b89565b9350610bbd818560208601610a66565b610bc681610a8e565b840191505092915050565b610bda81610af5565b82525050565b610be9816109ee565b82525050565b5f606083015f8301518482035f860152610c098282610b99565b9150506020830151610c1e6020860182610bd1565b506040830151610c316040860182610be0565b508091505092915050565b5f610c478383610bef565b905092915050565b5f602082019050919050565b5f610c6582610b60565b610c6f8185610b6a565b935083602082028501610c8185610b7a565b805f5b85811015610cbc5784840389528151610c9d8582610c3c565b9450610ca883610c4f565b925060208a01995050600181019050610c84565b50829750879550505050505092915050565b5f6020820190508181035f830152610ce68184610c5b565b905092915050565b5f610cf882610ad6565b9050919050565b610d0881610cee565b82525050565b5f602082019050610d215f830184610cff565b92915050565b5f80fd5b5f80fd5b7f4e487b71000000000000000000000000000000000000000000000000000000005f52604160045260245ffd5b610d6582610a8e565b810181811067ffffffffffffffff82111715610d8457610d83610d2f565b5b80604052505050565b5f610d966109dd565b9050610da28282610d5c565b919050565b5f67ffffffffffffffff821115610dc157610dc0610d2f565b5b610dca82610a8e565b9050602081019050919050565b828183375f83830152505050565b5f610df7610df284610da7565b610d8d565b905082815260208101848484011115610e1357610e12610d2b565b5b610e1e848285610dd7565b509392505050565b5f82601f830112610e3a57610e39610d27565b5b8135610e4a848260208601610de5565b91505092915050565b5f60208284031215610e6857610e676109e6565b5b5f82013567ffffffffffffffff811115610e8557610e846109ea565b5b610e9184828501610e26565b91505092915050565b7f4e487b71000000000000000000000000000000000000000000000000000000005f52602260045260245ffd5b5f6002820490506001821680610ede57607f821691505b602082108103610ef157610ef0610e9a565b5b50919050565b7f4f6e6c7920746865206f776e6572206f66207468697320636f6e7472616374205f8201527f63616e2063616c6c207468652066756e6374696f6e0000000000000000000000602082015250565b5f610f51603583610a56565b9150610f5c82610ef7565b604082019050919050565b5f6020820190508181035f830152610f7e81610f45565b9050919050565b7f4e487b71000000000000000000000000000000000000000000000000000000005f52601260045260245ffd5b5f610fbc826109ee565b9150610fc7836109ee565b925082610fd757610fd6610f85565b5b828206905092915050565b7f4e487b71000000000000000000000000000000000000000000000000000000005f52603260045260245ffd5b5f819050919050565b5f61103261102d61102884610ad6565b61100f565b610ad6565b9050919050565b5f61104382611018565b9050919050565b5f61105482611039565b9050919050565b6110648161104a565b82525050565b5f60808201905061107d5f830187610b15565b61108a6020830186610b15565b611097604083018561105b565b81810360608301526110a98184610a9e565b905095945050505050565b7f546865206d696e696d756d2076616c7565207265717569726564206973200000815250565b5f81905092915050565b5f6110ee82610a4c565b6110f881856110da565b9350611108818560208601610a66565b80840191505092915050565b5f61111e826110b4565b601e8201915061112e82846110e4565b915081905092915050565b5f6020820190508181035f8301526111518184610a9e565b905092915050565b5f819050815f5260205f209050919050565b5f6020601f8301049050919050565b5f82821b905092915050565b5f600883026111b57fffffffffffffffffffffffffffffffffffffffffffffffffffffffffffffffff8261117a565b6111bf868361117a565b95508019841693508086168417925050509392505050565b5f6111f16111ec6111e7846109ee565b61100f565b6109ee565b9050919050565b5f819050919050565b61120a836111d7565b61121e611216826111f8565b848454611186565b825550505050565b5f90565b611232611226565b61123d818484611201565b505050565b5b81811015611260576112555f8261122a565b600181019050611243565b5050565b601f8211156112a55761127681611159565b61127f8461116b565b8101602085101561128e578190505b6112a261129a8561116b565b830182611242565b50505b505050565b5f82821c905092915050565b5f6112c55f19846008026112aa565b1980831691505092915050565b5f6112dd83836112b6565b9150826002028217905092915050565b6112f682610a4c565b67ffffffffffffffff81111561130f5761130e610d2f565b5b6113198254610ec7565b611324828285611264565b5f60209050601f831160018114611355575f8415611343578287015190505b61134d85826112d2565b8655506113b4565b601f19841661136386611159565b5f5b8281101561138a57848901518255600182019150602085019450602081019050611365565b868310156113a757848901516113a3601f8916826112b6565b8355505b6001600288020188555050505b505050505050565b5f819050919050565b6113d66113d1826109ee565b6113bc565b82525050565b5f6113e782846113c5565b6020820191508190509291505056fea2646970667358221220b206e6c3a08ee53650cb6b196a76577092e96ad89319b131c419359ce6ef0b8964736f6c63430008150033",
  "immutableReferences": {},
  "source": "// SPDX-License-Identifier: MIT\npragma solidity ^0.8.20;\n\nimport \"@openzeppelin/contracts/utils/Strings.sol\";\n\ncontract Lottery {\n\n    struct Participant {\n        string nickname;\n        address payable wallet;\n        uint amount;\n    }\n\n    // Stores the owner of the contract\n    address public owner;\n    Participant[] public participants;\n\n    // We use it to emit some details about the pickWinner transaction\n    event WinnerPicked(\n        uint index,\n        uint prize,\n        address winner,\n        string nickname\n    );\n\n    /**\n     * @dev Stores the address of the person deploying the contract\n     */\n    constructor() {\n        owner = msg.sender;\n    }\n\n    /**\n     * @dev Makes sure the owner is the only one who can call a function\n     */\n    modifier restricted() {\n        require(msg.sender == owner, \"Only the owner of this contract can call the function\");\n        _;\n    }\n\n    /**\n     * @dev Enforces a minimun amount of ether to be sent to a function\n     * @param value The minimum amount to send\n     */\n    modifier minimum(uint value) {\n        string memory requiredMsg = string.concat(\"The minimum value required is \", Strings.toString(value));\n        require(msg.value >= value, requiredMsg);\n        _;\n    }\n\n    function pickWinner() public restricted {\n        // Compute the (pseudo) random index of the winner\n        uint index = random() % participants.length;\n\n        uint prize = address(this).balance;\n        address payable winnerWallet = participants[index].wallet;\n        string memory nickname = participants[index].nickname;\n\n        // Transfer the total amount to the winner\n        winnerWallet.transfer(prize);\n\n        // Empty the list of players\n        delete participants;\n\n        // Emit event with details of the result\n        emit WinnerPicked(\n            index,\n            prize,\n            winnerWallet,\n            nickname\n        );\n    }\n\n    /**\n     * @dev Generates a pseudo random number\n     * https://medium.com/0xcode/hashing-functions-in-solidity-using-keccak256-70779ea55bb0\n     * https://docs.soliditylang.org/en/v0.8.17/abi-spec.html\n     * @return index of the player within our list\n     */\n    function random() private view returns (uint) {\n        return uint(keccak256(abi.encodePacked(block.timestamp)));\n    }\n\n    /**\n     * @dev Gets the list of participants currently in the game\n     * @return participants\n     */\n    function getParticipants() public view returns (Participant[] memory) {\n        return participants;\n    }\n\n    /**\n     * @dev Will be called by the player who enters de game sending ether\n     * and makes sure he/she is sending a minimum of 0.01 ether\n     */\n    function enter(string memory nickname) public payable minimum(.01 ether) {\n        participants.push(Participant(nickname, payable(msg.sender), msg.value));\n    }\n}",
  "sourcePath": "/Users/kup/Projects/personal/smart-contracts-example/contracts/Lottery.sol",
  "compiler": {
    "name": "solc",
    "version": "0.8.21+commit.d9974bed.Emscripten.clang"
  },
  "schemaVersion": "3.4.16",
  "updatedAt": "2024-06-20T20:21:21.988Z",
  "devdoc": {
    "kind": "dev",
    "methods": {
      "constructor": {
        "details": "Stores the address of the person deploying the contract"
      },
      "enter(string)": {
        "details": "Will be called by the player who enters de game sending ether and makes sure he/she is sending a minimum of 0.01 ether"
      },
      "getParticipants()": {
        "details": "Gets the list of participants currently in the game",
        "returns": {
          "_0": "participants"
        }
      }
    },
    "version": 1
  },
  "userdoc": {
    "kind": "user",
    "methods": {},
    "version": 1
  }
}